:100000000C9434000C9446000C9446000C940801A7
:100010000C9446000C9446000C9446000C94460048
:100020000C9446000C9446000C9446000C94460038
:100030000C9446000C9446000C9446000C94460028
:100040000C941C010C9446000C9446000C94460041
:100050000C9446000C9446000C9446000C94460008
:100060000C9441010C94460011241FBECFEFD8E040
:10007000DEBFCDBF21E0A0E0B1E001C01D92A630FF
:10008000B207E1F70E94AA000C948E010C940000C4
:10009000ECE7F0E010828081806280838081806460
:1000A0008083EEE7F0E0808181608083EAE7F0E022
:1000B00010828081876080830895ECE7F0E0908172
:1000C000907F892B8083EAE7F0E0808180688083DD
:1000D00080818064808380917A0086FDFCCF80914E
:1000E0007900089597B19F7E97B990E0880F991F86
:1000F00081608093BA0085E48093BC00089580E01D
:100100000E945D0080930201873430F48BB18061DE
:100110008BB9109205010895873430F08BB18F7E32
:100120008BB981E0809305010895EBE6F0E08081D2
:1001300080618083E8E6F0E08081816080830895BB
:1001400014BC85B5856085BDEEE6F0E080818160F8
:1001500080830895F89484B1806284B98AB18861FB
:100160008AB984B18F7E84B985B1806185B90E94D6
:1001700048000E9495000E94A00084E00E94720046
:10018000789480910301883749F49091010181E0CE
:10019000911180E08093010110920301809101018F
:1001A0008130B9F4809103018E3699F481E0909109
:1001B0000501911180E080930501813021F48BB11C
:1001C00080618BB903C08BB18F7E8BB91092030114
:1001D00006C080910101811102C00E947F008091C0
:1001E0000301803791F481E090910401911180E046
:1001F00080930401813021F48BB188608BB905C0F4
:10020000811103C08BB1877F8BB910920301B9CFE5
:100210001F920F920FB60F9211248F9380910001BD
:10022000811104C016BC81E0809300018F910F9072
:100230000FBE0F901F9018951F920F920FB60F923E
:1002400011248F939F9380910001813099F4109233
:1002500000011C990FC090910401911180E08093DE
:100260000401813021F48BB188608BB903C08BB15C
:10027000877F8BB99F918F910F900FBE0F901F902A
:1002800018951F920F920FB60F9211248F93EF9330
:10029000FF938091B900887F8039C9F038F48037A6
:1002A00081F08038A1F0803661F50BC0883BC9F041
:1002B00018F4883AB1F025C0803CE9F0883CD9F0C8
:1002C00020C0ECEBF0E08081806880831FC08091CB
:1002D000BB0080930301ECEBF0E0808180688083B9
:1002E00015C0809105018093BB00ECEBF0E08081AC
:1002F000806C80830BC0ECEBF0E08081806C8083AD
:1003000005C0ECEBF0E0808180698083FF91EF9184
:100310008F910F900FBE0F901F901895F894FFCFFC
:00000001FF
