:100000000C9434000C9446000C9446000C9446006A
:100010000C9446000C9446000C9446000C94460048
:100020000C9446000C9446000C9446000C94460038
:100030000C9446000C9446000C9446000C94460028
:100040000C9446000C9446000C9446000C94460018
:100050000C9446000C9446000C9446000C94460008
:100060000C946A000C94460011241FBECFEFD8E018
:10007000DEBFCDBF21E0A0E0B1E001C01D92A33002
:10008000B207E1F70E94B7000C94F4000C94000052
:10009000ECE7F0E010828081806280838081806460
:1000A0008083EEE7F0E0808181608083EAE7F0E022
:1000B0001082808187608083089597B19F7E97B971
:1000C00090E0880F991F81608093BA0085E4809347
:1000D000BC0008951F920F920FB60F9211248F93B8
:1000E000EF93FF938091B900887F8039C9F038F48D
:1000F000803781F08038A1F0803661F50BC0883BF5
:10010000C9F018F4883AB1F025C0803CE9F0883C89
:10011000D9F020C0ECEBF0E08081806880831FC0C4
:100120008091BB0080930101ECEBF0E0808180685E
:10013000808315C0809102018093BB00ECEBF0E05E
:100140008081806C80830BC0ECEBF0E08081806C60
:10015000808305C0ECEBF0E0808180698083FF91B3
:10016000EF918F910F900FBE0F901F901895F894FC
:1001700084B1806284B98AB180618AB984B18F7E8A
:1001800084B985B1806185B90E94480084E00E94ED
:100190005D00789488E7809301019091000181E0EF
:1001A000911180E080930001109201018091000183
:1001B0008130B9F4809101018E3699F481E09091FB
:1001C0000201911180E080930201813021F48BB112
:1001D00080618BB903C08BB18F7E8BB91092010106
:0C01E000D9CF10920001D6CFF894FFCFC9
:00000001FF
