:100000000C9434000C9446000C9446000C9446006A
:100010000C9446000C9446000C9446000C94460048
:100020000C9446000C9446000C9446000C94460038
:100030000C9446000C9446000C9446000C94460028
:100040000C9446000C9446000C9446000C94460018
:100050000C9446000C9446000C9446000C94460008
:100060000C947F000C94460011241FBECFEFD8E003
:10007000DEBFCDBF21E0A0E0B1E001C01D92A33002
:10008000B207E1F70E94E5000C941F010C940000F8
:10009000ECE7F0E010828081806280838081806460
:1000A0008083EEE7F0E0808181608083EAE7F0E022
:1000B00010828081876080830895ECE7F0E0908172
:1000C000907F892B8083EAE7F0E0808180688083DD
:1000D00080818064808380917A0086FDFCCF80914E
:1000E0007900089597B19F7E97B990E0880F991F86
:1000F00081608093BA0085E48093BC0008951F92CC
:100100000F920FB60F9211248F939F93EF93FF934B
:100110008091B900887F8039D1F040F4803789F030
:100120008038A9F0803609F042C00BC0883B79F1D5
:1001300018F4883A61F13BC0803C99F1883C89F120
:1001400036C0ECEBF0E080818068808335C0809120
:10015000BB0080930001809100018E3691F481E014
:1001600090910201911180E080930201813021F48D
:100170008BB180618BB903C08BB18F7E8BB910922C
:100180000001ECEBF0E080818068808315C08091F5
:1001900002018093BB00ECEBF0E08081806C8083F7
:1001A0000BC0ECEBF0E08081806C808305C0ECEB51
:1001B000F0E0808180698083FF91EF919F918F9122
:1001C0000F900FBE0F901F901895F89484B1806225
:1001D00084B98AB180618AB984B18F7E84B985B1CE
:1001E000806185B90E94480084E00E947200789482
:1001F0002FEF80E792E0215080409040E1F700C06F
:10020000000080E00E945D00809301018B3550F476
:1002100090910201913031F48BB180618BB91092D1
:100220000201E6CF8B3520F3809102018111E0CFEE
:100230008BB18F7E8BB981E080930201D9CFF89486
:02024000FFCFEE
:00000001FF
