S01A000050726F796563746F312064696732434153412E73726563E6
S11300000C9434000C9451000C9451000C94510045
S11300100C9451000C9451000C9451000C94510018
S11300200C9451000C9451000C9451000C94510008
S11300300C9451000C9451000C9451000C945100F8
S11300400C9451000C9451000C94BF020C94510078
S11300500C9451000C9451000C9451000C945100D8
S11300600C94C8000C94510011241FBECFEFD8E0AB
S1130070DEBFCDBF11E0A0E0B1E0E0E1F0E102C0FD
S113008005900D92A837B107D9F721E0A8E7B1E0B0
S113009001C01D92AE3FB207E1F70E9492010C9499
S11300A006080C94000097B19F7E97B990E0880FE2
S11300B0991F81608093BA0085E48093BC00089501
S11300C08AB184608AB987B1886087B98AB1877F29
S11300D08AB98BB18B7F8BB908958BB18B7F8BB928
S11300E08AE08A95F1F700C08BB184608BB985E30F
S11300F08A95F1F700008BB18B7F8BB908950E942C
S11301006D0080E090E0DC0107C025E02A95F1F75E
S113011000000196A11DB11D4B9906C0803325E74F
S11301209207A105B10588F380339547A105B10570
S1130130D0F480E090E0DC0107C00196A11DB11D60
S113014025E02A95F1F700004B9B06C0803325E794
S11301509207A105B10588F3803325E79207A1052D
S1130160B10520F4089580E090E0089580E090E0E7
S113017008950E94600080E895E20E9484020E9433
S1130180D70160E074E080E00E9439027894089519
S11301901F920F920FB60F9211248F93EF93FF9338
S11301A08091B900887F8039C9F038F4803781F0B4
S11301B08038A1F0803661F50BC0883BC9F018F493
S11301C0883AB1F025C0803CE9F0883CD9F020C0E1
S11301D0ECEBF0E08081806880831FC08091BB00DD
S11301E080937B01ECEBF0E080818068808315C014
S11301F08091FD018093BB00ECEBF0E08081806C8A
S113020080830BC0ECEBF0E08081806C808305C0C0
S1130210ECEBF0E0808180698083FF91EF918F9116
S11302200F900FBE0F901F901895EF92FF920F93AF
S11302301F93CF93DF93CDB7DEB76C970FB6F894C7
S1130240DEBF0FBECDBF0E947F00009739F488B196
S1130250877F88B989E10E944F024EC020917801BE
S1130260309179018C01020F131F16950795109395
S11302707901009378011F930F9380E091E09F939D
S11302808F931F928CE18F93CE0101967C019F93F3
S11302908F930E940E05C7010E94B2020FB6F89414
S11302A0DEBF0FBECDBF0B331105B8F481E08093E0
S11302B0FD0188B1886088B986E90E944F029FEFEA
S11302C02BE782E9915020408040E1F700C0000014
S11302D082E191E00E94B2020FC00534110560F082
S11302E01092FD0188B1877F88B989E10E944F028D
S11302F084E391E00E94B2029FEF21EE84E09150EA
S113030020408040E1F700C000006C960FB6F894DE
S1130310DEBF0FBECDBFDF91CF911F910F91FF9034
S1130320EF9008950E94B90082E00E9453007894EF
S113033080917B01883749F490917A0181E0911191
S113034080E080937A0110927B0180917A01813060
S113035039F580917B018D3619F59091FD0181E08D
S1130360911180E08093FD018091FD01813059F469
S113037088B1886088B986E90E944F0284E591E0DB
S11303800E94B2020AC088B1877F88B988E20E94BD
S11303904F0286E691E00E94B20210927B01C8CF20
S11303A080917A018111C4CF0E941501C1CF14BC80
S11303B015BC08954F925F926F927F92AF92BF9255
S11303C0CF92DF92EF92FF920F931F93CF93DF931D
S11303D0CDB7DEB728970FB6F894DEBF0FBECDBFFA
S11303E029013A01ED82FE820F8318870E94E302FD
S11303F069837A838B839C83A6019501698D7A8DA9
S11304008B8D9C8D0E94E3029B01AC0169817A81F2
S11304108B819C810E947F0469837A838B839C8374
S1130420A3019201C801B7010E94E3029B01AC0140
S113043069817A818B819C810E9450039B01AC016C
S1130440C601B5010E94E40228960FB6F894DEBFF7
S11304500FBECDBFDF91CF911F910F91FF90EF9011
S1130460DF90CF90BF90AF907F906F905F904F9050
S113047008959AB190629AB9882321F084B5806373
S113048084BD03C084B5806284BD84B5836084BDAB
S11304906115744019F485B5856085BD0895AF92E2
S11304A0BF92CF92DF92EF92FF920F931F93682F28
S11304B070E080E090E00E94F10322E42F9320E1B9
S11304C02F931F921F920F2EA12CB12CF0ECCF2E44
S11304D0F0E4DF2EF02DE12CF12C0FE713E420E003
S11304E030E0A9010E94DA010F900F900F900F9055
S11304F00E94C20368BD1F910F91FF90EF90DF909F
S1130500CF90BF90AF900895A0E0B0E0880F991FFE
S1130510AA1FBB1F880F991FAA1FBB1F9C01AD01F7
S1130520220F331F441F551F220F331F441F551F13
S113053060E074E284EF90E00E94EC042150310901
S11305403093C5002093C40088E98093C10086E0FD
S11305508093C20008959091C00095FFFCCF8093D2
S1130560C6000895CF93DF93EC0103C021960E9447
S1130570AB0288818111FACFDF91CF9108951F9248
S11305800F920FB60F9211248F93EF93FF93E09184
S11305907C01F0E08091C600E358FE4F8083809197
S11305A07C018F5F8F7780937C01E0917C01F0E088
S11305B0E358FE4F1082FF91EF918F910F900FBE81
S11305C00F901F9018955058BB27AA270E94FB0232
S11305D00C9445040E94370438F00E943E0420F035
S11305E039F49F3F19F426F40C9434040EF4E09586
S11305F0E7FB0C942E04E92F0E94560458F3BA1713
S1130600620773078407950720F079F4A6F50C9424
S113061078040EF4E0950B2EBA2FA02D0B01B9012E
S113062090010C01CA01A0011124FF27591B99F064
S1130630593F50F4503E68F11A16F040A22F232F70
S1130640342F4427585FF3CF469537952795A795C0
S1130650F0405395C9F77EF41F16BA0B620B730B67
S1130660840BBAF09150A1F0FF0FBB1F661F771FD8
S1130670881FC2F70EC0BA0F621F731F841F48F48D
S1130680879577956795B795F7959E3F08F0B0CF16
S11306909395880F08F09927EE0F979587950895FD
S11306A00E9464030C9445040E943E0458F00E9486
S11306B0370440F029F45F3F29F00C942E045111C3
S11306C00C9479040C9434040E94560468F399231E
S11306D0B1F3552391F3951B550BBB27AA2762173A
S11306E07307840738F09F5F5F4F220F331F441F47
S11306F0AA1FA9F335D00E2E3AF0E0E832D091507B
S11307005040E695001CCAF72BD0FE2F29D0660F67
S1130710771F881FBB1F261737074807AB07B0E8AA
S113072009F0BB0B802DBF01FF2793585F4F3AF0B0
S11307309E3F510578F00C942E040C9479045F3F8D
S1130740E4F3983ED4F3869577956795B795F79536
S11307509F5FC9F7880F911D9695879597F908951E
S1130760E1E0660F771F881FBB1F621773078407BA
S1130770BA0720F0621B730B840BBA0BEE1F88F7C9
S1130780E09508950E945E0488F09F5798F0B92F71
S11307909927B751B0F0E1F0660F771F881F991FB2
S11307A01AF0BA95C9F714C0B13091F00E947804D8
S11307B0B1E008950C947804672F782F8827B85FE8
S11307C039F0B93FCCF3869577956795B395D9F70A
S11307D03EF490958095709561957F4F8F4F9F4F14
S11307E00895E89409C097FB3EF490958095709520
S11307F061957F4F8F4F9F4F9923A9F0F92F96E969
S1130800BB279395F695879577956795B795F111DD
S1130810F8CFFAF4BB0F11F460FF1BC06F5F7F4F7A
S11308208F4F9F4F16C0882311F096E911C077238C
S113083021F09EE8872F762F05C0662371F096E895
S1130840862F70E060E02AF09A95660F771F881F64
S1130850DAF7880F9695879597F9089597F99F6722
S113086080E870E060E008959FEF80EC0895002434
S11308700A941616170618060906089500240A9401
S113088012161306140605060895092E0394000C87
S113089011F4882352F0BB0F40F4BF2B11F460FF16
S11308A004C06F5F7F4F8F4F9F4F089557FD90583F
S11308B0440F551F59F05F3F71F04795880F97FB20
S11308C0991F61F09F3F79F08795089512161306DA
S11308D01406551FF2CF4695F1DF08C01616170609
S11308E01806991FF1CF869571056105089408953E
S11308F0E894BB2766277727CB0197F908950E94D0
S113090092040C9445040E94370438F00E943E047B
S113091020F0952311F00C942E040C94340411242B
S11309200C9479040E94560470F3959FC1F3950FBB
S113093050E0551F629FF001729FBB27F00DB11D5F
S1130940639FAA27F00DB11DAA1F649F6627B00DEF
S1130950A11D661F829F2227B00DA11D621F739FD8
S1130960B00DA11D621F839FA00D611D221F749FE6
S11309703327A00D611D231F849F600D211D822F2D
S1130980762F6A2F11249F5750409AF0F1F0882354
S11309904AF0EE0FFF1FBB1F661F771F881F915081
S11309A05040A9F79E3F510580F00C942E040C94FE
S11309B079045F3FE4F3983ED4F386957795679581
S11309C0B795F795E7959F5FC1F7FE2B880F911DAB
S11309D09695879597F90895A1E21A2EAA1BBB1B39
S11309E0FD010DC0AA1FBB1FEE1FFF1FA217B307F7
S11309F0E407F50720F0A21BB30BE40BF50B661F0D
S1130A00771F881F991F1A9469F7609570958095D0
S1130A1090959B01AC01BD01CF010895AEE0B0E01B
S1130A20E4E1F5E00C94DD070D891E898F89988D2A
S1130A3026E02C831A83098397FF02C080E090E8A4
S1130A4001979E838D83AE01455E5F4F698D7A8DDC
S1130A50CE0101960E943E054D815E8157FD0AC07C
S1130A602F813885421753070CF49A01F801E20FDD
S1130A70F31F10822E96E4E00C94F907ABE0B0E08B
S1130A80E4E4F5E00C94CF076C017B018A01FC01DE
S1130A9017821682838181FFCCC1CE0101963C016D
S1130AA0F6019381F70193FD859193FF81917F0175
S1130AB0882309F4BAC1853239F493FD859193FFF3
S1130AC081917F01853229F4B60190E00E943507B7
S1130AD0E7CF912C212C312CFFE1F315D8F08B3288
S1130AE079F038F4803279F08332A1F4232D206137
S1130AF01DC08D3261F0803369F4232D216016C04E
S1130B00832D8260382EE32DE4603E2E2AC0F32D1F
S1130B10F8601DC037FC2DC020ED280F2A3040F0AE
S1130B208E32B9F436FC81C1232D2064322E19C0D3
S1130B3036FE06C08AE0989E200D1124922E11C024
S1130B40EAE02E9E200D1124222EF32DF0623F2E7A
S1130B5008C08C3621F4832D8068382E02C0883674
S1130B6041F4F70193FD859193FF81917F018111F8
S1130B70B3CF982F9F7D9554933028F40C5F1F4F6B
S1130B809FE399830DC0833631F0833771F0833549
S1130B9009F059C021C0F801808189830E5F1F4F7D
S1130BA088248394912C530113C02801F2E04F0E42
S1130BB0511CF801A080B18036FE03C0692D70E09D
S1130BC002C06FEF7FEFC5010E942A074C0182012A
S1130BD0F32DFF773F2E16C0280122E0420E511C50
S1130BE0F801A080B18036FE03C0692D70E002C018
S1130BF06FEF7FEFC5010E941F074C01F32DF068D2
S1130C003F2E820133FC1BC0822D90E0881699068A
S1130C10B0F4B60180E290E00E9435072A94F4CF44
S1130C20F50137FC859137FE81915F01B60190E0B3
S1130C300E94350721102A9421E0821A9108811418
S1130C40910471F7E8C0843611F0893641F5F80152
S1130C5037FE07C060817181828193810C5F1F4FD1
S1130C6008C060817181072E000C880B990B0E5F00
S1130C701F4FF32DFF763F2E97FF09C09095809567
S1130C80709561957F4F8F4F9F4FF0683F2E2AE0FC
S1130C9030E0A3010E947107882E861845C085376D
S1130CA031F4232D2F7EB22E2AE030E025C0932D7F
S1130CB0997FB92E8F36C1F018F4883579F0B5C014
S1130CC0803719F0883721F0B0C0E92FE061BE2EDB
S1130CD0B4FE0DC0FB2DF460BF2E09C034FE0AC063
S1130CE0292F2660B22E06C028E030E005C020E19E
S1130CF030E002C020E132E0F801B7FE07C06081B5
S1130D007181828193810C5F1F4F06C06081718164
S1130D1080E090E00E5F1F4FA3010E947107882EB0
S1130D208618FB2DFF773F2E36FE0DC0232D2E7F18
S1130D30A22E891458F434FE0BC032FC09C0832D52
S1130D408E7EA82E05C0B82CA32C03C0B82C01C0DD
S1130D50B92CA4FE0FC0FE01E80DF11D8081803383
S1130D6021F49A2D997EA92E09C0A2FE06C0B3943F
S1130D70B39404C08A2D867809F0B394A3FC11C0FF
S1130D80A0FE06C0B21488F4280C922C9B180EC046
S1130D90B21460F4B60180E290E00E943507B39487
S1130DA0F7CFB21418F42B1802C0982C212CA4FEEF
S1130DB010C0B60180E390E00E943507A2FE17C080
S1130DC0A1FC03C088E790E002C088E590E0B6018A
S1130DD00CC08A2D867859F0A1FE02C08BE201C0B6
S1130DE080E2A7FC8DE2B60190E00E9435078914E9
S1130DF038F4B60180E390E00E9435079A94F7CF67
S1130E008A94F301E80DF11D8081B60190E00E94FF
S1130E1035078110F5CF222009F442CEB60180E2D5
S1130E2090E00E9435072A94F6CFF60186819781D7
S1130E3002C08FEF9FEF2B96E2E10C94EB07FC01CD
S1130E400590615070400110D8F7809590958E0FF1
S1130E509F1F0895FC016150704001900110D8F764
S1130E60809590958E0F9F1F08950F931F93CF9396
S1130E70DF93FB01238121FD03C08FEF9FEF2CC083
S1130E8022FF16C0468157812481358142175307BA
S1130E9044F4A081B1819D012F5F3F4F31832083B2
S1130EA08C93268137812F5F3F4F3783268314C06D
S1130EB08B01EC01FB010084F185E02D0995892B60
S1130EC0E1F6D80116968D919C9117970196179685
S1130ED09C938E931697CE01DF91CF911F910F9122
S1130EE00895FA01AA27283051F1203181F1E894BC
S1130EF06F936E7F6E5F7F4F8F4F9F4FAF4FB1E009
S1130F003ED0B4E03CD0670F781F891F9A1FA11D03
S1130F10680F791F8A1F911DA11D6A0F711D811D04
S1130F20911DA11D20D009F468943F912AE0269FC9
S1130F3011243019305D3193DEF6CF010895462F28
S1130F404770405D4193B3E00FD0C9F7F6CF462F09
S1130F504F70405D4A3318F0495D31FD4052419372
S1130F6002D0A9F7EACFB4E0A6959795879577952F
S1130F706795BA95C9F700976105710508959B01B6
S1130F80AC010A2E06945795479537952795BA953F
S1130F90C9F7620F731F841F951FA01D08952F9218
S1130FA03F924F925F926F927F928F929F92AF92F5
S1130FB0BF92CF92DF92EF92FF920F931F93CF9342
S1130FC0DF93CDB7DEB7CA1BDB0B0FB6F894DEBFD9
S1130FD00FBECDBF09942A88398848885F846E84FF
S1130FE07D848C849B84AA84B984C884DF80EE8049
S1130FF0FD800C811B81AA81B981CE0FD11D0FB652
S1131000F894DEBF0FBECDBFED010895F894FFCF75
S11310100A0D4475726174696F6E3A202564200A62
S11310200D000A0D4C454420456E63656E64696489
S11310306F207920536572766F20416269657274FE
S11310406F0A0D000A0D4C454420417061676164CC
S11310506F207920536572766F20436572726164E4
S11310606F0A0D000A0D536572766F20416269653F
S113107072746F0A0D000A0D536572766F20436512
S10B1080727261646F0A0D0035
S9030000FC
