:100000000C9434000C9451000C9451000C94510049
:100010000C9451000C9451000C9451000C9451001C
:100020000C9451000C9451000C9451000C9451000C
:100030000C9451000C9451000C9451000C945100FC
:100040000C9451000C9451000C9469010C945100D3
:100050000C9451000C9451000C9451000C945100DC
:100060000C9451000C94510011241FBECFEFD8E026
:10007000DEBFCDBF11E0A0E0B1E0E4E0FCE002C0F3
:1000800005900D92AE32B107D9F721E0AEE2B1E0B2
:1000900001C01D92AF3AB207E1F70E9429010C940A
:1000A00000060C9400008AB184608AB987B180612F
:1000B00087B98AB1877F8AB98AB18F7E8AB98BB1B5
:1000C0008B7F8BB908958BB18B7F8BB900C08BB1BF
:1000D00084608BB983E08A95F1F700008BB18B7F48
:1000E0008BB908950E94630080E090E0DC0104C0B9
:1000F00000000196A11DB11D4B9906C0803325E774
:100100009207A105B105A0F380339547A105B1057C
:10011000B8F480E090E0DC0104C00196A11DB11D9F
:1001200000004B9B06C0803325E79207A105B1056F
:10013000A0F3803325E79207A105B10520F40895C7
:1001400080E090E0089580E090E008950E945300E0
:1001500080E895E20E942E010895EF92FF920F939E
:100160001F93CF93DF93CDB7DEB76C970FB6F8949C
:10017000DEBF0FBECDBF0E9472008C01009721F43C
:1001800088B18F7E88B94FC0BC0180E090E00E94AA
:10019000C30126E933E44BE05DE30E94290220E03D
:1001A00030E040E05FE30E94290220E030E048ECCC
:1001B00052E40E9429020E948D01CB0164E670E0A6
:1001C0000E94BE029F938F937F936F9380E091E094
:1001D0009F938F931F928CE18F93CE0101967C01A8
:1001E0009F938F930E940803C7010E945C010FB682
:1001F000F894DEBF0FBECDBF0436114088F488B13D
:10020000806188B98BE191E00E945C012FE38DE071
:1002100093E0215080409040E1F700C0000003C00F
:1002200088B18F7E88B92FE38DE093E02150804024
:100230009040E1F700C000006C960FB6F894DEBF66
:100240000FBECDBFDF91CF911F910F91FF90EF9027
:1002500008950E94A6000E94AD00FDCFA0E0B0E08E
:10026000880F991FAA1FBB1F880F991FAA1FBB1FAA
:100270009C01AD01220F331F441F551F220F331F56
:10028000441F551F60E074E284EF90E00E94D202A8
:10029000215031093093C5002093C40088E9809330
:1002A000C10086E08093C20008959091C00095FF40
:1002B000FCCF8093C6000895CF93DF93EC0103C079
:1002C00021960E94550188818111FACFDF91CF914B
:1002D00008951F920F920FB60F9211248F93EF93F0
:1002E000FF93E0912E01F0E08091C600E15DFE4FAA
:1002F000808380912E018F5F8F7780932E01E09114
:100300002E01F0E0E15DFE4F1082FF91EF918F91A1
:100310000F900FBE0F901F9018950E949401689443
:10032000B1110C94230208950E94080288F09F578F
:1003300098F0B92F9927B751B0F0E1F0660F771F09
:10034000881F991F1AF0BA95C9F714C0B13091F0FF
:100350000E942202B1E008950C942202672F782FA8
:100360008827B85F39F0B93FCCF3869577956795C4
:10037000B395D9F73EF490958095709561957F4F30
:100380008F4F9F4F0895E89409C097FB3EF49095D6
:100390008095709561957F4F8F4F9F4F9923A9F05E
:1003A000F92F96E9BB279395F695879577956795ED
:1003B000B795F111F8CFFAF4BB0F11F460FF1BC031
:1003C0006F5F7F4F8F4F9F4F16C0882311F096E9C4
:1003D00011C0772321F09EE8872F762F05C0662372
:1003E00071F096E8862F70E060E02AF09A95660F2B
:1003F000771F881FDAF7880F9695879597F90895E4
:1004000057FD9058440F551F59F05F3F71F04795C5
:10041000880F97FB991F61F09F3F79F087950895AA
:10042000121613061406551FF2CF4695F1DF08C0C9
:10043000161617061806991FF1CF869571056105E6
:1004400008940895E894BB2766277727CB0197F98E
:1004500008950E943C020C94AD020E949F0238F065
:100460000E94A60220F0952311F00C9496020C94A1
:100470009C0211240C9423020E94000270F3959FA9
:10048000C1F3950F50E0551F629FF001729FBB278B
:10049000F00DB11D639FAA27F00DB11DAA1F649F27
:1004A0006627B00DA11D661F829F2227B00DA11DDA
:1004B000621F739FB00DA11D621F839FA00D611D60
:1004C000221F749F3327A00D611D231F849F600D81
:1004D000211D822F762F6A2F11249F5750409AF0AA
:1004E000F1F088234AF0EE0FFF1FBB1F661F771F36
:1004F000881F91505040A9F79E3F510580F00C9401
:1005000096020C9423025F3FE4F3983ED4F3869561
:1005100077956795B795F795E7959F5FC1F7FE2BA0
:10052000880F911D9695879597F9089597F99F677C
:1005300080E870E060E008959FEF80EC089500246B
:100540000A941616170618060906089500240A9438
:1005500012161306140605060895092E0394000CBE
:1005600011F4882352F0BB0F40F4BF2B11F460FF4D
:1005700004C06F5F7F4F8F4F9F4F089597FB072EEB
:1005800016F4009407D077FD09D00E94F40207FC0E
:1005900005D03EF4909581959F4F08957095619593
:1005A0007F4F0895A1E21A2EAA1BBB1BFD010DC0AF
:1005B000AA1FBB1FEE1FFF1FA217B307E407F50713
:1005C00020F0A21BB30BE40BF50B661F771F881FEF
:1005D000991F1A9469F760957095809590959B0185
:1005E000AC01BD01CF010895AA1BBB1B51E107C09F
:1005F000AA1FBB1FA617B70710F0A61BB70B881FB3
:10060000991F5A95A9F780959095BC01CD01089541
:10061000AEE0B0E0EEE0F3E00C94D7050D891E8962
:100620008F89988D26E02C831A83098397FF02C057
:1006300080E090E801979E838D83AE01455E5F4F19
:10064000698D7A8DCE0101960E9438034D815E81BD
:1006500057FD0AC02F813885421753070CF49A01C1
:10066000F801E20FF31F10822E96E4E00C94F305DC
:10067000ABE0B0E0EEE3F3E00C94C9056C017B0164
:100680008A01FC0117821682838181FFCCC1CE01D1
:1006900001963C01F6019381F70193FD859193FF4B
:1006A00081917F01882309F4BAC1853239F493FD21
:1006B000859193FF81917F01853229F4B60190E005
:1006C0000E942F05E7CF912C212C312CFFE1F3154F
:1006D000D8F08B3279F038F4803279F08332A1F49B
:1006E000232D20611DC08D3261F0803369F4232DEC
:1006F000216016C0832D8260382EE32DE4603E2EEB
:100700002AC0F32DF8601DC037FC2DC020ED280F46
:100710002A3040F08E32B9F436FC81C1232D20649A
:10072000322E19C036FE06C08AE0989E200D112494
:10073000922E11C0EAE02E9E200D1124222EF32DC0
:10074000F0623F2E08C08C3621F4832D8068382E4D
:1007500002C0883641F4F70193FD859193FF8191A2
:100760007F018111B3CF982F9F7D9554933028F44A
:100770000C5F1F4F9FE399830DC0833631F08337A1
:1007800071F0833509F059C021C0F8018081898357
:100790000E5F1F4F88248394912C530113C02801AE
:1007A000F2E04F0E511CF801A080B18036FE03C06C
:1007B000692D70E002C06FEF7FEFC5010E94240534
:1007C0004C018201F32DFF773F2E16C0280122E055
:1007D000420E511CF801A080B18036FE03C0692D85
:1007E00070E002C06FEF7FEFC5010E9419054C0158
:1007F000F32DF0683F2E820133FC1BC0822D90E068
:1008000088169906B0F4B60180E290E00E942F05A8
:100810002A94F4CFF50137FC859137FE81915F0171
:10082000B60190E00E942F0521102A9421E0821A3F
:1008300091088114910471F7E8C0843611F089366B
:1008400041F5F80137FE07C0608171818281938193
:100850000C5F1F4F08C060817181072E000C880B50
:10086000990B0E5F1F4FF32DFF763F2E97FF09C0A8
:1008700090958095709561957F4F8F4F9F4FF06851
:100880003F2E2AE030E0A3010E946B05882E8618D7
:1008900045C0853731F4232D2F7EB22E2AE030E07B
:1008A00025C0932D997FB92E8F36C1F018F4883565
:1008B00079F0B5C0803719F0883721F0B0C0E92F42
:1008C000E061BE2EB4FE0DC0FB2DF460BF2E09C04A
:1008D00034FE0AC0292F2660B22E06C028E030E080
:1008E00005C020E130E002C020E132E0F801B7FEAF
:1008F00007C060817181828193810C5F1F4F06C0A8
:100900006081718180E090E00E5F1F4FA3010E9423
:100910006B05882E8618FB2DFF773F2E36FE0DC007
:10092000232D2E7FA22E891458F434FE0BC032FCE6
:1009300009C0832D8E7EA82E05C0B82CA32C03C021
:10094000B82C01C0B92CA4FE0FC0FE01E80DF11DAA
:100950008081803321F49A2D997EA92E09C0A2FEB0
:1009600006C0B394B39404C08A2D867809F0B3947A
:10097000A3FC11C0A0FE06C0B21488F4280C922C6F
:100980009B180EC0B21460F4B60180E290E00E94A1
:100990002F05B394F7CFB21418F42B1802C0982C7B
:1009A000212CA4FE10C0B60180E390E00E942F0528
:1009B000A2FE17C0A1FC03C088E790E002C088E552
:1009C00090E0B6010CC08A2D867859F0A1FE02C0D5
:1009D0008BE201C080E2A7FC8DE2B60190E00E94AC
:1009E0002F05891438F4B60180E390E00E942F05AA
:1009F0009A94F7CF8A94F301E80DF11D8081B60136
:100A000090E00E942F058110F5CF222009F442CEFC
:100A1000B60180E290E00E942F052A94F6CFF601FD
:100A20008681978102C08FEF9FEF2B96E2E10C94B5
:100A3000E505FC010590615070400110D8F78095E4
:100A400090958E0F9F1F0895FC016150704001909A
:100A50000110D8F7809590958E0F9F1F08950F93E2
:100A60001F93CF93DF93FB01238121FD03C08FEF01
:100A70009FEF2CC022FF16C046815781248135810B
:100A80004217530744F4A081B1819D012F5F3F4F6E
:100A9000318320838C93268137812F5F3F4F3783AB
:100AA000268314C08B01EC01FB010084F185E02D4D
:100AB0000995892BE1F6D80116968D919C9117978F
:100AC000019617969C938E931697CE01DF91CF9146
:100AD0001F910F910895FA01AA27283051F1203172
:100AE00081F1E8946F936E7F6E5F7F4F8F4F9F4FC2
:100AF000AF4FB1E03ED0B4E03CD0670F781F891F04
:100B00009A1FA11D680F791F8A1F911DA11D6A0FD1
:100B1000711D811D911DA11D20D009F468943F9184
:100B20002AE0269F11243019305D3193DEF6CF0183
:100B30000895462F4770405D4193B3E00FD0C9F749
:100B4000F6CF462F4F70405D4A3318F0495D31FDB6
:100B50004052419302D0A9F7EACFB4E0A695979509
:100B6000879577956795BA95C9F7009761057105DF
:100B700008959B01AC010A2E069457954795379529
:100B80002795BA95C9F7620F731F841F951FA01D83
:100B900008952F923F924F925F926F927F928F9221
:100BA0009F92AF92BF92CF92DF92EF92FF920F93FC
:100BB0001F93CF93DF93CDB7DEB7CA1BDB0B0FB606
:100BC000F894DEBF0FBECDBF09942A8839884888C3
:100BD0005F846E847D848C849B84AA84B984C88459
:100BE000DF80EE80FD800C811B81AA81B981CE0F50
:100BF000D11D0FB6F894DEBF0FBECDBFED01089535
:040C0000F894FFCF96
:100C04000A0D44697374616E6369613A2025642E28
:100C14002530326420636D200A0D000A0D4C4544D2
:0E0C240020456E63656E6469646F0A0D000002
:00000001FF
