:100000000C9434000C9451000C9451000C94510049
:100010000C9451000C9451000C9451000C9451001C
:100020000C9451000C9451000C9451000C9451000C
:100030000C9451000C9451000C9451000C945100FC
:100040000C9451000C9451000C94DE010C9451005E
:100050000C9451000C9451000C9451000C945100DC
:100060000C9451000C94510011241FBECFEFD8E026
:10007000DEBFCDBF11E0A0E0B1E0ECE3FAE002C0EA
:1000800005900D92A033B107D9F722E0A0E3B1E0CB
:1000900001C01D92A133B207E1F70E944E010C94FA
:1000A0001C050C940000CF92DF92EF92FF926B013F
:1000B0007C0187B18F7C87B9443079F018F44130E6
:1000C00031F023C0403191F04034C9F01EC0E9EB5B
:1000D000F0E080818C7F80831DC0E9EBF0E08081BF
:1000E0008D7F808380818160808314C0E9EBF0E0A4
:1000F00080818E7F80838081826080830BC0E9EB6A
:10010000F0E080818360808305C0E9EBF0E08081CE
:100110008C7F808360E074E284EF90E0A701960119
:100120000E940202CA01B901605171098109910955
:100130002091B900237042E050E0FA0102C0EE0FB6
:10014000FF1F2A95E2F79F01032E000C440B550B6D
:100150000E9402022093B800ECEBF0E08081846002
:100160008083FF90EF90DF90CF90089584EA809392
:10017000BC008091BC008823E4F78091B900887F9F
:10018000883021F0803121F480E0089580E00895E6
:1001900081E0089584E98093BC008091BC0084FDD7
:1001A000FCCF08958093BB0084E88093BC008091CD
:1001B000BC008823E4F78091B900887F883131F052
:1001C000883231F0803429F480E0089580E0089589
:1001D00080E00895DC01662331F0ECEBF0E09081E3
:1001E0009064908305C0ECEBF0E090819F7B90835E
:1001F000ECEBF0E09081906890839091BC009923A3
:10020000E4F79091B900987F983511F0903529F472
:100210008091BB008C9380E00895892F08950F93FF
:100220001F93CF93DF93EC018B010E94B6008111E5
:1002300022C082E90E94D20081111FC00E94D20018
:1002400081111DC00E94B60081111BC083E90E946C
:10025000D200811118C061E0CE010E94EA00811134
:1002600014C060E0C8010E94EA00C82F81110FC0CD
:100270000E94CA000DC0C1E00BC0C1E009C0C1E0CE
:1002800007C0C1E005C0C1E003C0C1E001C0C1E0DA
:100290008C2FDF91CF911F910F910895CF93DF9312
:1002A00000D0CDB7DEB780E895E20E94A30141E01F
:1002B00060EA76E881E090E00E9453001A82198299
:1002C000BE016F5F7F4FCE0102960E940F01811128
:1002D00023C08A8190E0982F88272981822B9C0156
:1002E000332314F421503F4F832F880F880B8F93B3
:1002F0003F9380E091E09F938F931F9280E88F93CC
:1003000081EB91E09F938F930E9424020FB6F894A3
:10031000DEBF0FBECDBF09C08AE1E5E1F1E0A1EB90
:10032000B1E001900D928A95E1F781EB91E00E9496
:10033000D1019FEB27E289E0915020408040E1F716
:1003400000C00000BBCFA0E0B0E0880F991FAA1F3B
:10035000BB1F880F991FAA1FBB1F9C01AD01220F55
:10036000331F441F551F220F331F441F551F60E0CA
:1003700074E284EF90E00E94020221503109309330
:10038000C5002093C40088E98093C10086E0809373
:10039000C20008959091C00095FFFCCF8093C600E5
:1003A0000895CF93DF93EC0103C021960E94CA0108
:1003B00088818111FACFDF91CF9108951F920F921A
:1003C0000FB60F9211248F93EF93FF93E0913001BA
:1003D000F0E08091C600EF5CFE4F80838091300199
:1003E0008F5F8F7780933001E0913001F0E0EF5C18
:1003F000FE4F1082FF91EF918F910F900FBE0F90E3
:100400001F901895A1E21A2EAA1BBB1BFD010DC05F
:10041000AA1FBB1FEE1FFF1FA217B307E407F507B4
:1004200020F0A21BB30BE40BF50B661F771F881F90
:10043000991F1A9469F760957095809590959B0126
:10044000AC01BD01CF010895AEE0B0E0EAE2F2E018
:100450000C94F3040D891E898F89988D26E02C83D6
:100460001A83098397FF02C080E090E801979E837A
:100470008D83AE01455E5F4F698D7A8DCE01019609
:100480000E9454024D815E8157FD0AC02F8138853C
:10049000421753070CF49A01F801E20FF31F108280
:1004A0002E96E4E00C940F05ABE0B0E0EAE5F2E054
:1004B0000C94E5046C017B018A01FC011782168211
:1004C000838181FFCCC1CE0101963C01F60193816D
:1004D000F70193FD859193FF81917F01882309F4B2
:1004E000BAC1853239F493FD859193FF81917F01E3
:1004F000853229F4B60190E00E944B04E7CF912C9D
:10050000212C312CFFE1F315D8F08B3279F038F43F
:10051000803279F08332A1F4232D20611DC08D3209
:1005200061F0803369F4232D216016C0832D826031
:10053000382EE32DE4603E2E2AC0F32DF8601DC056
:1005400037FC2DC020ED280F2A3040F08E32B9F450
:1005500036FC81C1232D2064322E19C036FE06C020
:100560008AE0989E200D1124922E11C0EAE02E9E62
:10057000200D1124222EF32DF0623F2E08C08C3660
:1005800021F4832D8068382E02C0883641F4F701AB
:1005900093FD859193FF81917F018111B3CF982FB6
:1005A0009F7D9554933028F40C5F1F4F9FE39983F0
:1005B0000DC0833631F0833771F0833509F059C0AF
:1005C00021C0F801808189830E5F1F4F88248394A6
:1005D000912C530113C02801F2E04F0E511CF80179
:1005E000A080B18036FE03C0692D70E002C06FEFBD
:1005F0007FEFC5010E9440044C018201F32DFF777B
:100600003F2E16C0280122E0420E511CF801A080A6
:10061000B18036FE03C0692D70E002C06FEF7FEF3E
:10062000C5010E9435044C01F32DF0683F2E820174
:1006300033FC1BC0822D90E088169906B0F4B601F9
:1006400080E290E00E944B042A94F4CFF50137FC3D
:10065000859137FE81915F01B60190E00E944B04C5
:1006600021102A9421E0821A91088114910471F7D3
:10067000E8C0843611F0893641F5F80137FE07C02D
:1006800060817181828193810C5F1F4F08C06081FE
:100690007181072E000C880B990B0E5F1F4FF32DF5
:1006A000FF763F2E97FF09C09095809570956195D4
:1006B0007F4F8F4F9F4FF0683F2E2AE030E0A3011D
:1006C0000E948704882E861845C0853731F4232D73
:1006D0002F7EB22E2AE030E025C0932D997FB92ECF
:1006E0008F36C1F018F4883579F0B5C0803719F02D
:1006F000883721F0B0C0E92FE061BE2EB4FE0DC0F6
:10070000FB2DF460BF2E09C034FE0AC0292F2660DD
:10071000B22E06C028E030E005C020E130E002C083
:1007200020E132E0F801B7FE07C06081718182816B
:1007300093810C5F1F4F06C06081718180E090E063
:100740000E5F1F4FA3010E948704882E8618FB2D81
:10075000FF773F2E36FE0DC0232D2E7FA22E89144B
:1007600058F434FE0BC032FC09C0832D8E7EA82EB7
:1007700005C0B82CA32C03C0B82C01C0B92CA4FE12
:100780000FC0FE01E80DF11D8081803321F49A2D08
:10079000997EA92E09C0A2FE06C0B394B39404C0EA
:1007A0008A2D867809F0B394A3FC11C0A0FE06C080
:1007B000B21488F4280C922C9B180EC0B21460F46A
:1007C000B60180E290E00E944B04B394F7CFB214DC
:1007D00018F42B1802C0982C212CA4FE10C0B601CE
:1007E00080E390E00E944B04A2FE17C0A1FC03C06E
:1007F00088E790E002C088E590E0B6010CC08A2D41
:10080000867859F0A1FE02C08BE201C080E2A7FC0D
:100810008DE2B60190E00E944B04891438F4B601D1
:1008200080E390E00E944B049A94F7CF8A94F301FE
:10083000E80DF11D8081B60190E00E944B0481100B
:10084000F5CF222009F442CEB60180E290E00E946A
:100850004B042A94F6CFF6018681978102C08FEF70
:100860009FEF2B96E2E10C940105FC01059061508D
:1008700070400110D8F7809590958E0F9F1F0895B6
:10088000FC016150704001900110D8F7809590955F
:100890008E0F9F1F08950F931F93CF93DF93FB013C
:1008A000238121FD03C08FEF9FEF2CC022FF16C0D4
:1008B00046815781248135814217530744F4A08132
:1008C000B1819D012F5F3F4F318320838C9326811F
:1008D00037812F5F3F4F3783268314C08B01EC0194
:1008E000FB010084F185E02D0995892BE1F6D80103
:1008F00016968D919C911797019617969C938E93BF
:100900001697CE01DF91CF911F910F910895FA01B3
:10091000AA27283051F1203181F1E8946F936E7F3E
:100920006E5F7F4F8F4F9F4FAF4FB1E03ED0B4E02F
:100930003CD0670F781F891F9A1FA11D680F791F70
:100940008A1F911DA11D6A0F711D811D911DA11D81
:1009500020D009F468943F912AE0269F1124301991
:10096000305D3193DEF6CF010895462F4770405D2C
:100970004193B3E00FD0C9F7F6CF462F4F70405DDB
:100980004A3318F0495D31FD4052419302D0A9F736
:10099000EACFB4E0A6959795879577956795BA9530
:1009A000C9F700976105710508959B01AC010A2EF6
:1009B00006945795479537952795BA95C9F7620FCD
:1009C000731F841F951FA01D08952F923F924F9271
:1009D0005F926F927F928F929F92AF92BF92CF92CF
:1009E000DF92EF92FF920F931F93CF93DF93CDB7D8
:1009F000DEB7CA1BDB0B0FB6F894DEBF0FBECDBF50
:100A000009942A88398848885F846E847D848C8420
:100A10009B84AA84B984C884DF80EE80FD800C8129
:100A20001B81AA81B981CE0FD11D0FB6F894DEBF0C
:0C0A30000FBECDBFED010895F894FFCF7C
:100A3C0054656D70657261747572653A2025642019
:100A4C0043200A0D004572726F72207265616469F1
:100A5C006E672074656D70657261747572650000E7
:00000001FF
