S013000074656D70657261747572612E7372656367
S11300000C9434000C9451000C9451000C947D0415
S11300100C94BE040C9451000C9451000C945100A7
S11300200C9451000C9451000C9451000C942D0428
S11300300C9451000C9451000C9451000C945100F8
S11300400C9451000C9451000C94B6050C9451007E
S11300500C9451000C9451000C9451000C945100D8
S11300600C9451000C94510011241FBECFEFD8E022
S1130070DEBFCDBF12E0A0E0B1E0ECEEF1E102C0E2
S113008005900D92AE33B107D9F723E0AEE3B2E0A9
S113009001C01D92AF36B207E1F70E9434050C94FB
S11300A0F4080C940000CF92DF92EF92FF926B0160
S11300B07C0187B18F7C87B9443079F018F44130E2
S11300C031F023C0403191F04034C9F01EC0E9EB57
S11300D0F0E080818C7F80831DC0E9EBF0E08081BB
S11300E08D7F808380818160808314C0E9EBF0E0A0
S11300F080818E7F80838081826080830BC0E9EB66
S1130100F0E080818360808305C0E9EBF0E08081CA
S11301108C7F808360E074E284EF90E0A701960115
S11301200E94DA05CA01B901605171098109910976
S11301302091B900237042E050E0FA0102C0EE0FB2
S1130140FF1F2A95E2F79F01032E000C440B550B69
S11301500E94DA052093B800ECEBF0E08081846023
S11301608083FF90EF90DF90CF90089584EA80938E
S1130170BC008091BC008823E4F78091B900887F9B
S1130180883021F0803121F480E0089580E00895E2
S113019081E0089584E98093BC008091BC0084FDD3
S11301A0FCCF08958093BB0084E88093BC008091C9
S11301B0BC008823E4F78091B900887F883131F04E
S11301C0883231F0803429F480E0089580E0089585
S11301D080E00895DC01662331F0ECEBF0E09081DF
S11301E09064908305C0ECEBF0E090819F7B90835A
S11301F0ECEBF0E09081906890839091BC0099239F
S1130200E4F79091B900987F983511F0903529F46E
S11302108091BB008C9380E00895892F089594EA1F
S11302209093BC009091BC009923E4F79091B9009D
S1130230987F983099F590E0880F991F816080939A
S1130240BB0084E88093BC008091BC008823E4F761
S1130250FB018091B900887F803421F00E94CA009C
S113026081E0089584E88093BC008091BC008823D9
S1130270E4F78091B900887F883549F08091B9000E
S1130280887F803521F00E94CA0081E00895809122
S1130290BB0080830E94CA0080E0089581E0089535
S11302A0CF93DF93D82FC62F0E94B6008D2F880FCF
S11302B00E94D2008C2F0E94D2000E94CA00DF91BB
S11302C0CF91089580FF04C09BB194609BB903C093
S11302D09BB19B7F9BB981FF04C09BB198609BB984
S11302E003C09BB1977F9BB982FF04C09BB190610F
S11302F09BB903C09BB19F7E9BB983FF04C09BB194
S113030090629BB903C09BB19F7D9BB984FF04C0DD
S11303109BB190649BB903C09BB19F7B9BB985FF44
S113032004C09BB190689BB903C09BB19F779BB9F4
S113033086FF04C095B1916095B903C095B19E7FC5
S113034095B9882324F485B1826085B9089585B16F
S11303508D7F85B9089595B19B7F95B90E946201FF
S113036085B1886085B985E08A95F1F7000085B18B
S1130370877F85B98FE39FE10197F1F700C0000003
S113038008958AB18C6F8AB91BB884B18F6084B91F
S113039015B82FEF89EF90E0215080409040E1F7AD
S11303A000C0000088E30E94AB018FE19EE4019746
S11303B0F1F700C0000088E30E94AB018FE99FE0E1
S11303C00197F1F700C0000088E30E94AB018FE9B8
S11303D09FE00197F1F700C0000088E30E94AB01A1
S11303E08CE00E94AB0181E00E94AB018FE39FE1AE
S11303F00197F1F700C0000086E00E94AB01089568
S113040095B1946095B90E94620185B1886085B9FF
S113041085E08A95F1F7000085B1877F85B98FE380
S11304209FE10197F1F700C0000008950F931F9317
S1130430CF93DF938C01C0E0D0E003C00E940002A0
S11304402196F801EC0FFD1F80818111F7CFDF9118
S1130450CF911F910F910895CF93613031F4CFE77D
S1130460C80F8C2F0E94AB0107C0623029F4CFEB78
S1130470C80F8C2F0E94AB018C2F0E94AB01CF912F
S113048008956DE573E082E00E940F0190915D0391
S1130490811116C0913051F485E0E0E0F1E0ACE464
S11304A0B2E001900D928A95E1F7089586E0E5E0C7
S11304B0F1E0ACE4B2E001900D928A95E1F7089581
S11304C086E0EBE0F1E0ACE4B2E001900D928A95B5
S11304D0E1F708956EE573E084E00E940F019091C6
S11304E05E03811115C0913041F4EFE5F3E08FE62E
S11304F09EE69183808312820895EFE5F3E08FE610
S113050096E69183808386E690E0938382830895C0
S113051086E0EBE0F1E0AFE5B3E001900D928A955F
S1130520E1F708950F931F93CF93DF93EC018B01B1
S11305300E94B600811122C080E90E94D20081117C
S11305401FC00E94D20081111DC00E94B6008111FB
S11305501BC081E90E94D200811118C061E0CE0164
S11305600E94EA00811114C060E0C8010E94EA0000
S1130570C82F81110FC00E94CA000DC0C1E00BC07A
S1130580C1E009C0C1E007C0C1E005C0C1E003C0CB
S1130590C1E001C0C1E08C2FDF91CF911F910F9179
S11305A00895CF93DF9300D0CDB7DEB719821A82B6
S11305B0BE016E5F7F4FCE0101960E9492028111AF
S11305C03AC0898190E0982F88272A81822B9093C2
S11305D04B0280934A029C01332314F421503F4F71
S11305E0832F880F880B8F933F9381E191E09F9332
S11305F08F931F9280E88F938DED92E09F938F935A
S11306000E94FC0580914A0290914B020FB6F89427
S1130610DEBF0FBECDBF811595413CF088B184602B
S113062088B981E0809349020FC088B18B7F88B973
S11306301092490209C08AE1E6E2F1E0ADEDB2E0D0
S113064001900D928A95E1F70F900F90DF91CF9171
S1130650089580914A0290914B02992314F4815099
S11306609F4F892F880F880B8F939F9380E491E08D
S11306709F938F931F9280E88F938DED92E09F93C9
S11306808F930E94FC0562E081E00E942C028DE4BD
S113069091E00E94160262E081E00E942C028DED3E
S11306A092E00E94160261E081E00E942C0285E43F
S11306B091E00E94160262E087E00E942C028BE423
S11306C091E00E94160262E087E00E942C028CE412
S11306D092E00E94160261E087E00E942C0284E509
S11306E091E00E94160262E08DE00E942C028BE4ED
S11306F091E00E94160262E08DE00E942C028FE5D8
S113070093E00E94160261E08DE00E942C028AE5CB
S113071091E00E9416028DB79EB708960FB6F89422
S11307209EBF0FBE8DBF0895CF930E949905892B5C
S113073009F45BC00E94A305C82F0E94850583EAC3
S113074091E00E948C05809146028130A1F4CD365F
S113075091F42FEF81EE94E0215080409040E1F736
S113076000C000008FE591E00E948C056DE682E0F8
S11307700E9450013AC0813059F4CE3649F484E8DD
S113078091E00E948C056EE684E00E9450012DC029
S11307908130B9F4CF36A9F486EA91E00E948C0541
S11307A081E090914902911180E08093490288236D
S11307B021F088B1846088B918C088B18B7F88B96A
S11307C014C0C83771F491E0811190E0909346020F
S11307D068E782E00E94500168E784E00E945001CB
S11307E004C08FEC91E00E948C05CF91089587B1ED
S11307F0846087B984B18F7E84B987B1847F87B9D7
S113080085B1806185B988B18B6088B90895ECE6BB
S1130810F0E080818B608083E8E6F0E08081826094
S113082080830895EBE6F0E0808180618083E8E6D0
S1130830F0E08081816080830895109280008AE0D6
S1130840809381008FE19EE49093890080938800D7
S113085082E080936F00789408951F920F920FB6F0
S11308600F9211242F938F939F9380914402909120
S11308704502883E934048F4809144029091450299
S11308800196909345028093440280914202909194
S11308904302883E934048F480914202909143027F
S11308A0019690934302809342028091400290917A
S11308B04102883E934048F4809140029091410265
S11308C00196909341028093400280913E02909160
S11308D03F02883E934048F480913E0290913F024B
S11308E0019690933F0280933E029F918F912F91A6
S11308F00F900FBE0F901F9018951F920F920FB676
S11309000F9211242F933F934F935F936F937F9391
S11309108F939F93AF93BF93EF93FF931C991DC045
S11309208091440290914502C297B8F0109245021A
S11309301092440285EF91E00E948C0581E0909131
S11309404602911180E08093460268E782E00E94AB
S1130950500168E784E00E945001FF91EF91BF913C
S1130960AF919F918F917F916F915F914F913F9143
S11309702F910F900FBE0F901F9018951F920F92FA
S11309800FB60F9211242F933F934F935F936F935E
S11309907F938F939F93AF93BF93EF93FF9330997C
S11309A016C08091420290914302C29780F0109247
S11309B043021092420280914602813041F46DE676
S11309C082E00E94500187E092E00E948C053199F8
S11309D016C08091400290914102C29780F010921B
S11309E041021092400280914602813041F46EE649
S11309F084E00E94500189E192E00E948C053399C1
S1130A0022C080913E0290913F02C297E0F0109282
S1130A103F0210923E0281E090914902911180E0E0
S1130A2080934902882341F080914602813021F469
S1130A3088B1846088B903C088B18B7F88B98BE2A0
S1130A4092E00E948C05FF91EF91BF91AF919F912D
S1130A508F917F916F915F914F913F912F910F9063
S1130A600FBE0F901F90189580E895E20E945E05D6
S1130A700E94C10141E060EA76E881E090E00E94D2
S1130A8053000E94F7030E9412040E9407040E946C
S1130A901D0478940E9494030E94D1020E94410292
S1130AA00E946A020E9429032FEF85EA9EE02150EA
S1130AB080409040E1F700C00000ECCFA0E0B0E03F
S1130AC0880F991FAA1FBB1F880F991FAA1FBB1F3E
S1130AD09C01AD01220F331F441F551F220F331FEA
S1130AE0441F551F60E074E284EF90E00E94DA0531
S1130AF0215031093093C5002093C40088E98093C4
S1130B00C10086E08093C20008959091C00095FFD3
S1130B10FCCF8093C6000895CF93DF93EC0103C00C
S1130B2021960E94850588818111FACFDF91CF91AA
S1130B300895209148029091470281E0291301C051
S1130B4080E090E008950E949905892B69F0E09176
S1130B504702F0E0E45AFD4F8081909147029F5F85
S1130B609F779093470208958FEF08951F920F92F5
S1130B700FB60F9211248F939F93EF93FF9380915D
S1130B8048028F5F8F7790914702891751F0E09167
S1130B904802F0E09091C600E45AFD4F90838093A0
S1130BA04802FF91EF919F918F910F900FBE0F908C
S1130BB01F901895A1E21A2EAA1BBB1BFD010DC0A4
S1130BC0AA1FBB1FEE1FFF1FA217B307E407F507F9
S1130BD020F0A21BB30BE40BF50B661F771F881FD5
S1130BE0991F1A9469F760957095809590959B016B
S1130BF0AC01BD01CF010895AEE0B0E0E2E0F6E063
S1130C000C94CB080D891E898F89988D26E02C833E
S1130C101A83098397FF02C080E090E801979E83BE
S1130C208D83AE01455E5F4F698D7A8DCE0101964D
S1130C300E942C064D815E8157FD0AC02F813885A4
S1130C40421753070CF49A01F801E20FF31F1082C4
S1130C502E96E4E00C94E708ABE0B0E0E2E3F6E0C3
S1130C600C94BD086C017B018A01FC011782168279
S1130C70838181FFCCC1CE0101963C01F6019381B1
S1130C80F70193FD859193FF81917F01882309F4F6
S1130C90BAC1853239F493FD859193FF81917F0127
S1130CA0853229F4B60190E00E942308E7CF912C05
S1130CB0212C312CFFE1F315D8F08B3279F038F484
S1130CC0803279F08332A1F4232D20611DC08D324E
S1130CD061F0803369F4232D216016C0832D826076
S1130CE0382EE32DE4603E2E2AC0F32DF8601DC09B
S1130CF037FC2DC020ED280F2A3040F08E32B9F495
S1130D0036FC81C1232D2064322E19C036FE06C064
S1130D108AE0989E200D1124922E11C0EAE02E9EA6
S1130D20200D1124222EF32DF0623F2E08C08C36A4
S1130D3021F4832D8068382E02C0883641F4F701EF
S1130D4093FD859193FF81917F018111B3CF982FFA
S1130D509F7D9554933028F40C5F1F4F9FE3998334
S1130D600DC0833631F0833771F0833509F059C0F3
S1130D7021C0F801808189830E5F1F4F88248394EA
S1130D80912C530113C02801F2E04F0E511CF801BD
S1130D90A080B18036FE03C0692D70E002C06FEF01
S1130DA07FEFC5010E9418084C018201F32DFF77E3
S1130DB03F2E16C0280122E0420E511CF801A080EB
S1130DC0B18036FE03C0692D70E002C06FEF7FEF83
S1130DD0C5010E940D084C01F32DF0683F2E8201DD
S1130DE033FC1BC0822D90E088169906B0F4B6013E
S1130DF080E290E00E9423082A94F4CFF50137FCA6
S1130E00859137FE81915F01B60190E00E9423082D
S1130E1021102A9421E0821A91088114910471F717
S1130E20E8C0843611F0893641F5F80137FE07C071
S1130E3060817181828193810C5F1F4F08C0608142
S1130E407181072E000C880B990B0E5F1F4FF32D39
S1130E50FF763F2E97FF09C0909580957095619518
S1130E607F4F8F4F9F4FF0683F2E2AE030E0A30161
S1130E700E945F08882E861845C0853731F4232DDB
S1130E802F7EB22E2AE030E025C0932D997FB92E13
S1130E908F36C1F018F4883579F0B5C0803719F071
S1130EA0883721F0B0C0E92FE061BE2EB4FE0DC03A
S1130EB0FB2DF460BF2E09C034FE0AC0292F266022
S1130EC0B22E06C028E030E005C020E130E002C0C8
S1130ED020E132E0F801B7FE07C0608171818281B0
S1130EE093810C5F1F4F06C06081718180E090E0A8
S1130EF00E5F1F4FA3010E945F08882E8618FB2DEA
S1130F00FF773F2E36FE0DC0232D2E7FA22E89148F
S1130F1058F434FE0BC032FC09C0832D8E7EA82EFB
S1130F2005C0B82CA32C03C0B82C01C0B92CA4FE56
S1130F300FC0FE01E80DF11D8081803321F49A2D4C
S1130F40997EA92E09C0A2FE06C0B394B39404C02E
S1130F508A2D867809F0B394A3FC11C0A0FE06C0C4
S1130F60B21488F4280C922C9B180EC0B21460F4AE
S1130F70B60180E290E00E942308B394F7CFB21444
S1130F8018F42B1802C0982C212CA4FE10C0B60112
S1130F9080E390E00E942308A2FE17C0A1FC03C0D6
S1130FA088E790E002C088E590E0B6010CC08A2D85
S1130FB0867859F0A1FE02C08BE201C080E2A7FC52
S1130FC08DE2B60190E00E942308891438F4B6013A
S1130FD080E390E00E9423089A94F7CF8A94F30167
S1130FE0E80DF11D8081B60190E00E942308811074
S1130FF0F5CF222009F442CEB60180E290E00E94AF
S113100023082A94F6CFF6018681978102C08FEFD8
S11310109FEF2B96E2E10C94D908FC0105906150F6
S113102070400110D8F7809590958E0F9F1F0895FA
S1131030FC016150704001900110D8F780959095A3
S11310408E0F9F1F08950F931F93CF93DF93FB0180
S1131050238121FD03C08FEF9FEF2CC022FF16C018
S113106046815781248135814217530744F4A08176
S1131070B1819D012F5F3F4F318320838C93268163
S113108037812F5F3F4F3783268314C08B01EC01D8
S1131090FB010084F185E02D0995892BE1F6D80147
S11310A016968D919C911797019617969C938E9303
S11310B01697CE01DF91CF911F910F910895FA01F8
S11310C0AA27283051F1203181F1E8946F936E7F83
S11310D06E5F7F4F8F4F9F4FAF4FB1E03ED0B4E074
S11310E03CD0670F781F891F9A1FA11D680F791FB5
S11310F08A1F911DA11D6A0F711D811D911DA11DC6
S113110020D009F468943F912AE0269F11243019D5
S1131110305D3193DEF6CF010895462F4770405D70
S11311204193B3E00FD0C9F7F6CF462F4F70405D1F
S11311304A3318F0495D31FD4052419302D0A9F77A
S1131140EACFB4E0A6959795879577956795BA9574
S1131150C9F700976105710508959B01AC010A2E3A
S113116006945795479537952795BA95C9F7620F11
S1131170731F841F951FA01D08952F923F924F92B5
S11311805F926F927F928F929F92AF92BF92CF9213
S1131190DF92EF92FF920F931F93CF93DF93CDB71C
S11311A0DEB7CA1BDB0B0FB6F894DEBF0FBECDBF94
S11311B009942A88398848885F846E847D848C8465
S11311C09B84AA84B984C884DF80EE80FD800C816E
S11311D01B81AA81B981CE0FD11D0FB6F894DEBF51
S10F11E00FBECDBFED010895F894FFCFC1
S11311EC6F70656E00636C6F7365006572726F72FD
S11311FC0054656D70657261747572653A2025646E
S113120C2043200A0D004572726F7220726561646E
S113121C696E672074656D706572617475726500B2
S113122C256420430074656D703A00202020202032
S113123C20202000476174653A004461793A000A21
S113124C43616D6269616E646F20656C20657374B3
S113125C61646F2064656C20706F7274F36E2E2E53
S113126C2E0D0A000A43616D6269616E646F20651C
S113127C6C2065737461646F2064656C2064ED612B
S113128C2E2E2E0D0A000A43616D6269616E646F25
S113129C20656C2065737461646F2064656C2076C2
S11312AC656E74696C61646F722E2E2E0D0A000AC1
S11312BC456C20636F6D616E646F20696E67726537
S11312CC7361646F206E6F207365207265636F6E3B
S11312DC6F63650A005042342070726573696F6ED7
S11312EC61646F2E0D0A005043302070726573696F
S11312FC6F6E61646F2E0D0A00504331207072655D
S113130C73696F6E61646F2E0D0A00504333207045
S111131C726573696F6E61646F2E0D0A0000B6
S9030000FC
