S013000074656D70657261747572612E7372656367
S11300000C9434000C9451000C9451000C949904F9
S11300100C94DA040C9451000C9451000C9451008B
S11300200C9451000C9451000C9451000C9449040C
S11300300C9451000C9451000C9451000C945100F8
S11300400C9451000C9451000C94D2050C94510062
S11300500C9451000C9451000C9451000C945100D8
S11300600C9451000C94510011241FBECFEFD8E022
S1130070DEBFCDBF12E0A0E0B1E0E4E2F2E102C0F5
S113008005900D92A035B107D9F723E0A0E5B2E0C1
S113009001C01D92A138B207E1F70E9450050C94EB
S11300A010090C940000CF92DF92EF92FF926B0143
S11300B07C0187B18F7C87B9443079F018F44130E2
S11300C031F023C0403191F04034C9F01EC0E9EB57
S11300D0F0E080818C7F80831DC0E9EBF0E08081BB
S11300E08D7F808380818160808314C0E9EBF0E0A0
S11300F080818E7F80838081826080830BC0E9EB66
S1130100F0E080818360808305C0E9EBF0E08081CA
S11301108C7F808360E074E284EF90E0A701960115
S11301200E94F605CA01B90160517109810991095A
S11301302091B900237042E050E0FA0102C0EE0FB2
S1130140FF1F2A95E2F79F01032E000C440B550B69
S11301500E94F6052093B800ECEBF0E08081846007
S11301608083FF90EF90DF90CF90089584EA80938E
S1130170BC008091BC008823E4F78091B900887F9B
S1130180883021F0803121F480E0089580E00895E2
S113019081E0089584E98093BC008091BC0084FDD3
S11301A0FCCF08958093BB0084E88093BC008091C9
S11301B0BC008823E4F78091B900887F883131F04E
S11301C0883231F0803429F480E0089580E0089585
S11301D080E00895DC01662331F0ECEBF0E09081DF
S11301E09064908305C0ECEBF0E090819F7B90835A
S11301F0ECEBF0E09081906890839091BC0099239F
S1130200E4F79091B900987F983511F0903529F46E
S11302108091BB008C9380E00895892F089594EA1F
S11302209093BC009091BC009923E4F79091B9009D
S1130230987F983099F590E0880F991F816080939A
S1130240BB0084E88093BC008091BC008823E4F761
S1130250FB018091B900887F803421F00E94CA009C
S113026081E0089584E88093BC008091BC008823D9
S1130270E4F78091B900887F883549F08091B9000E
S1130280887F803521F00E94CA0081E00895809122
S1130290BB0080830E94CA0080E0089581E0089535
S11302A0CF93DF93D82FC62F0E94B6008D2F880FCF
S11302B00E94D2008C2F0E94D2000E94CA00DF91BB
S11302C0CF91089580FF04C09BB194609BB903C093
S11302D09BB19B7F9BB981FF04C09BB198609BB984
S11302E003C09BB1977F9BB982FF04C09BB190610F
S11302F09BB903C09BB19F7E9BB983FF04C09BB194
S113030090629BB903C09BB19F7D9BB984FF04C0DD
S11303109BB190649BB903C09BB19F7B9BB985FF44
S113032004C09BB190689BB903C09BB19F779BB9F4
S113033086FF04C095B1916095B903C095B19E7FC5
S113034095B9882324F485B1826085B9089585B16F
S11303508D7F85B9089595B19B7F95B90E946201FF
S113036085B1886085B985E08A95F1F7000085B18B
S1130370877F85B98FE39FE10197F1F700C0000003
S113038008958AB18C6F8AB91BB884B18F6084B91F
S113039015B82FEF89EF90E0215080409040E1F7AD
S11303A000C0000088E30E94AB018FE19EE4019746
S11303B0F1F700C0000088E30E94AB018FE99FE0E1
S11303C00197F1F700C0000088E30E94AB018FE9B8
S11303D09FE00197F1F700C0000088E30E94AB01A1
S11303E08CE00E94AB0181E00E94AB018FE39FE1AE
S11303F00197F1F700C0000086E00E94AB01089568
S113040095B1946095B90E94620185B1886085B9FF
S113041085E08A95F1F7000085B1877F85B98FE380
S11304209FE10197F1F700C0000008950F931F9317
S1130430CF93DF938C01C0E0D0E003C00E940002A0
S11304402196F801EC0FFD1F80818111F7CFDF9118
S1130450CF911F910F910895CF93613031F4CFE77D
S1130460C80F8C2F0E94AB0107C0623029F4CFEB78
S1130470C80F8C2F0E94AB018C2F0E94AB01CF912F
S113048008956FE673E082E00E940F0190916F037C
S1130490811116C0913051F485E0E0E0F1E0AEE561
S11304A0B2E001900D928A95E1F7089586E0E5E0C7
S11304B0F1E0AEE5B2E001900D928A95E1F708957E
S11304C086E0EBE0F1E0AEE5B2E001900D928A95B2
S11304D0E1F7089560E773E084E00E940F019091D2
S11304E07003811115C0913041F4E1E7F3E08FE628
S11304F09EE69183808312820895E1E7F3E08FE61C
S113050096E69183808386E690E0938382830895C0
S113051086E0EBE0F1E0A1E7B3E001900D928A956B
S1130520E1F708950F931F93CF93DF93EC018B01B1
S11305300E94B600811122C080E90E94D20081117C
S11305401FC00E94D20081111DC00E94B6008111FB
S11305501BC081E90E94D200811118C061E0CE0164
S11305600E94EA00811114C060E0C8010E94EA0000
S1130570C82F81110FC00E94CA000DC0C1E00BC07A
S1130580C1E009C0C1E007C0C1E005C0C1E003C0CB
S1130590C1E001C0C1E08C2FDF91CF911F910F9179
S11305A00895CF93DF9300D0CDB7DEB719821A82B6
S11305B0BE016E5F7F4FCE0101960E9492028111AF
S11305C03AC0898190E0982F88272A81822B9093C2
S11305D05D0280935C029C01332314F421503F4F4D
S11305E0832F880F880B8F933F9381E191E09F9332
S11305F08F931F9280E88F938FEE92E09F938F9357
S11306000E94180680915C0290915D020FB6F894E6
S1130610DEBF0FBECDBF811595413CF088B184602B
S113062088B981E080935B020FC088B18B7F88B961
S113063010925B0209C08AE1E6E2F1E0AFEEB2E0BB
S113064001900D928A95E1F70F900F90DF91CF9171
S1130650089580915C0290915D02992314F4815075
S11306609F4F892F880F880B8F939F9380E491E08D
S11306709F938F931F9280E88F938FEE92E09F93C6
S11306808F930E94180662E081E00E942C028DE4A0
S113069091E00E94160262E081E00E942C028FEE3B
S11306A092E00E94160261E081E00E942C0285E43F
S11306B091E00E94160262E087E00E942C028BE423
S11306C091E00E94160262E087E00E942C028EE50F
S11306D092E00E94160261E087E00E942C0284E509
S11306E091E00E94160262E08DE00E942C028BE4ED
S11306F091E00E94160262E08DE00E942C0281E7E4
S113070093E00E94160261E08DE00E942C028AE5CB
S113071091E00E9416028DB79EB708960FB6F89422
S11307209EBF0FBE8DBF0895CF930E94B505892B40
S113073009F477C00E94BF05C82F0E94A10583EA6F
S113074091E00E94A805809158028130A1F4CD3631
S113075091F42FEF81EE94E0215080409040E1F736
S113076000C000008FE591E00E94A8056DE682E0DC
S11307700E94500156C0813059F4CE3649F484E8C1
S113078091E00E94A8056EE684E00E94500149C0F1
S11307908130B9F4CF36A9F486EA91E00E94A80525
S11307A081E090915B02911180E080935B02882349
S11307B021F088B1846088B934C088B18B7F88B94E
S11307C030C08130A1F4C83791F491E0811190E0F8
S11307D09093580268E782E00E94500168E784E041
S11307E00E9450018FEC91E00E94A8051AC081116B
S11307F014C0C83791F491E0811190E090935802AD
S113080068E782E00E94500168E784E00E9450019A
S11308108FEC91E00E94A80504C082EE91E00E9452
S1130820A805CF91089587B1846087B984B18F7E7C
S113083084B987B1847F87B985B1806185B988B16E
S11308408B6088B90895ECE6F0E080818B6080834A
S1130850E8E6F0E08081826080830895EBE6F0E0D2
S1130860808180618083E8E6F0E08081816080831C
S11308700895109280008AE0809381008FE19EE4C5
S1130880909389008093880082E080936F0078942D
S113089008951F920F920FB60F9211242F938F93E6
S11308A09F938091560290915702883E934048F45A
S11308B0809156029091570201969093570280932B
S11308C056028091540290915502883E934048F418
S11308D08091540290915502019690935502809311
S11308E054028091520290915302883E934048F4FE
S11308F080915202909153020196909353028093F7
S113090052028091500290915102883E934048F4E3
S113091080915002909151020196909351028093DC
S113092050029F918F912F910F900FBE0F901F90A7
S113093018951F920F920FB60F9211242F933F9385
S11309404F935F936F937F938F939F93AF93BF93D3
S1130950EF93FF931C991DC080915602909157020A
S1130960C297B8F0109257021092560288E092E0B3
S11309700E94A80581E090915802911180E0809333
S1130980580268E782E00E94500168E784E00E9410
S11309905001FF91EF91BF91AF919F918F917F9102
S11309A06F915F914F913F912F910F900FBE0F90D8
S11309B01F9018951F920F920FB60F9211242F9328
S11309C03F934F935F936F937F938F939F93AF93D3
S11309D0BF93EF93FF93309916C080915402909186
S11309E05502C29780F010925502109254028091E1
S11309F05802813041F46DE682E00E9450018AE1A0
S1130A0092E00E94A805319916C0809152029091FB
S1130A105302C29780F010925302109252028091B6
S1130A205802813041F46EE684E00E9450018CE269
S1130A3092E00E94A805339922C0809150029091BF
S1130A405102C297E0F0109251021092500281E0DC
S1130A5090915B02911180E080935B02882341F0C6
S1130A6080915802813021F488B1846088B903C030
S1130A7088B18B7F88B98EE392E00E94A805FF912C
S1130A80EF91BF91AF919F918F917F916F915F9102
S1130A904F913F912F910F900FBE0F901F9018957B
S1130AA080E895E20E947A050E94C10141E060EA73
S1130AB076E881E090E00E9453000E9413040E94B3
S1130AC02E040E9423040E94390478940E94940303
S1130AD00E94D1020E9441020E946A020E942903DC
S1130AE02FEF85EA9EE0215080409040E1F700C05E
S1130AF00000ECCFA0E0B0E0880F991FAA1FBB1F35
S1130B00880F991FAA1FBB1F9C01AD01220F331F21
S1130B10441F551F220F331F441F551F60E074E20A
S1130B2084EF90E00E94F605215031093093C5000E
S1130B302093C40088E98093C10086E08093C200BA
S1130B4008959091C00095FFFCCF8093C60008954E
S1130B50CF93DF93EC0103C021960E94A105888105
S1130B608111FACFDF91CF91089520915A0290918B
S1130B70590281E0291301C080E090E008950E94A9
S1130B80B505892B69F0E0915902F0E0E259FD4F77
S1130B908081909159029F5F9F77909359020895A5
S1130BA08FEF08951F920F920FB60F9211248F9317
S1130BB09F93EF93FF9380915A028F5F8F77909169
S1130BC05902891751F0E0915A02F0E09091C60061
S1130BD0E259FD4F908380935A02FF91EF919F91C8
S1130BE08F910F900FBE0F901F901895A1E21A2EAF
S1130BF0AA1BBB1BFD010DC0AA1FBB1FEE1FFF1FBD
S1130C00A217B307E407F50720F0A21BB30BE40B0C
S1130C10F50B661F771F881F991F1A9469F7609553
S1130C207095809590959B01AC01BD01CF0108950D
S1130C30AEE0B0E0EEE1F6E00C94E7080D891E8921
S1130C408F89988D26E02C831A83098397FF02C02D
S1130C5080E090E801979E838D83AE01455E5F4FEF
S1130C60698D7A8DCE0101960E9448064D815E8180
S1130C7057FD0AC02F813885421753070CF49A0197
S1130C80F801E20FF31F10822E96E4E00C9403099E
S1130C90ABE0B0E0EEE4F6E00C94D9086C017B0123
S1130CA08A01FC0117821682838181FFCCC1CE01A7
S1130CB001963C01F6019381F70193FD859193FF21
S1130CC081917F01882309F4BAC1853239F493FDF7
S1130CD0859193FF81917F01853229F4B60190E0DB
S1130CE00E943F08E7CF912C212C312CFFE1F31512
S1130CF0D8F08B3279F038F4803279F08332A1F471
S1130D00232D20611DC08D3261F0803369F4232DC1
S1130D10216016C0832D8260382EE32DE4603E2EC0
S1130D202AC0F32DF8601DC037FC2DC020ED280F1C
S1130D302A3040F08E32B9F436FC81C1232D206470
S1130D40322E19C036FE06C08AE0989E200D11246A
S1130D50922E11C0EAE02E9E200D1124222EF32D96
S1130D60F0623F2E08C08C3621F4832D8068382E23
S1130D7002C0883641F4F70193FD859193FF819178
S1130D807F018111B3CF982F9F7D9554933028F420
S1130D900C5F1F4F9FE399830DC0833631F0833777
S1130DA071F0833509F059C021C0F801808189832D
S1130DB00E5F1F4F88248394912C530113C0280184
S1130DC0F2E04F0E511CF801A080B18036FE03C042
S1130DD0692D70E002C06FEF7FEFC5010E943408F7
S1130DE04C018201F32DFF773F2E16C0280122E02B
S1130DF0420E511CF801A080B18036FE03C0692D5B
S1130E0070E002C06FEF7FEFC5010E9429084C011A
S1130E10F32DF0683F2E820133FC1BC0822D90E03D
S1130E2088169906B0F4B60180E290E00E943F086B
S1130E302A94F4CFF50137FC859137FE81915F0147
S1130E40B60190E00E943F0821102A9421E0821A02
S1130E5091088114910471F7E8C0843611F0893641
S1130E6041F5F80137FE07C0608171818281938169
S1130E700C5F1F4F08C060817181072E000C880B26
S1130E80990B0E5F1F4FF32DFF763F2E97FF09C07E
S1130E9090958095709561957F4F8F4F9F4FF06827
S1130EA03F2E2AE030E0A3010E947B08882E86189A
S1130EB045C0853731F4232D2F7EB22E2AE030E051
S1130EC025C0932D997FB92E8F36C1F018F488353B
S1130ED079F0B5C0803719F0883721F0B0C0E92F18
S1130EE0E061BE2EB4FE0DC0FB2DF460BF2E09C020
S1130EF034FE0AC0292F2660B22E06C028E030E056
S1130F0005C020E130E002C020E132E0F801B7FE84
S1130F1007C060817181828193810C5F1F4F06C07D
S1130F206081718180E090E00E5F1F4FA3010E94F9
S1130F307B08882E8618FB2DFF773F2E36FE0DC0CA
S1130F40232D2E7FA22E891458F434FE0BC032FCBC
S1130F5009C0832D8E7EA82E05C0B82CA32C03C0F7
S1130F60B82C01C0B92CA4FE0FC0FE01E80DF11D80
S1130F708081803321F49A2D997EA92E09C0A2FE86
S1130F8006C0B394B39404C08A2D867809F0B39450
S1130F90A3FC11C0A0FE06C0B21488F4280C922C45
S1130FA09B180EC0B21460F4B60180E290E00E9477
S1130FB03F08B394F7CFB21418F42B1802C0982C3E
S1130FC0212CA4FE10C0B60180E390E00E943F08EB
S1130FD0A2FE17C0A1FC03C088E790E002C088E528
S1130FE090E0B6010CC08A2D867859F0A1FE02C0AB
S1130FF08BE201C080E2A7FC8DE2B60190E00E9482
S11310003F08891438F4B60180E390E00E943F0859
S11310109A94F7CF8A94F301E80DF11D8081B6010B
S113102090E00E943F088110F5CF222009F442CEBF
S1131030B60180E290E00E943F082A94F6CFF601C0
S11310408681978102C08FEF9FEF2B96E2E10C948B
S1131050F508FC010590615070400110D8F78095A7
S113106090958E0F9F1F0895FC0161507040019070
S11310700110D8F7809590958E0F9F1F08950F93B8
S11310801F93CF93DF93FB01238121FD03C08FEFD7
S11310909FEF2CC022FF16C04681578124813581E1
S11310A04217530744F4A081B1819D012F5F3F4F44
S11310B0318320838C93268137812F5F3F4F378381
S11310C0268314C08B01EC01FB010084F185E02D23
S11310D00995892BE1F6D80116968D919C91179765
S11310E0019617969C938E931697CE01DF91CF911C
S11310F01F910F910895FA01AA27283051F1203148
S113110081F1E8946F936E7F6E5F7F4F8F4F9F4F97
S1131110AF4FB1E03ED0B4E03CD0670F781F891FD9
S11311209A1FA11D680F791F8A1F911DA11D6A0FA7
S1131130711D811D911DA11D20D009F468943F915A
S11311402AE0269F11243019305D3193DEF6CF0159
S11311500895462F4770405D4193B3E00FD0C9F71F
S1131160F6CF462F4F70405D4A3318F0495D31FD8C
S11311704052419302D0A9F7EACFB4E0A6959795DF
S1131180879577956795BA95C9F7009761057105B5
S113119008959B01AC010A2E0694579547953795FF
S11311A02795BA95C9F7620F731F841F951FA01D59
S11311B008952F923F924F925F926F927F928F92F7
S11311C09F92AF92BF92CF92DF92EF92FF920F93D2
S11311D01F93CF93DF93CDB7DEB7CA1BDB0B0FB6DC
S11311E0F894DEBF0FBECDBF09942A883988488899
S11311F05F846E847D848C849B84AA84B984C8842F
S1131200DF80EE80FD800C811B81AA81B981CE0F25
S1131210D11D0FB6F894DEBF0FBECDBFED0108950A
S1071220F894FFCF6C
S11312246F70656E00636C6F7365006572726F72C4
S11312340054656D70657261747572653A20256435
S11312442043200A0D004572726F72207265616436
S1131254696E672074656D7065726174757265007A
S1131264256420430074656D703A002020202020FA
S113127420202000476174653A004461793A000AE9
S113128443616D6269616E646F20656C206573747B
S113129461646F2064656C20706F7274F36E2E2E1B
S11312A42E0D0A000A43616D6269616E646F2065E4
S11312B46C2065737461646F2064656C2064ED61F3
S11312C42E2E2E0D0A000A43616D6269616E646FED
S11312D420656C2065737461646F2064656C20768A
S11312E4656E74696C61646F722E2E2E0D0A000A89
S11312F463616D6269616E646F2065737461646FA8
S11313040A000A456C20636F6D616E646F20696E18
S11313146772657361646F206E6F207365207265F4
S1131324636F6E6F63650A00504234207072657394
S1131334696F6E61646F2E0D0A0050433020707221
S11313446573696F6E61646F2E0D0A00504331201A
S113135470726573696F6E61646F2E0D0A00504379
S1131364332070726573696F6E61646F2E0D0A00A9
S9030000FC
